:020000040800F2
:10000000E0050020010100088F1A0008AD17000864
:100010008D1A00080F020008211F000800000000D0
:10002000000000000000000000000000931A00081B
:100030001102000800000000911A0008951A00083B
:100040001B0100081B0100081B0100081B01000820
:100050001B0100081B0100081B0100081B01000810
:100060001B010008130200081B0100081B01000807
:100070001B0100081B0100081B0100081B010008F0
:100080001B0100081B0100081B0100081B010008E0
:100090001B0100081B0100081B0100081B010008D0
:1000A0001B010008F11A00081B0100081B010008D1
:1000B000FD1A00081B0100081B0100081B010008B5
:1000C0001B0100081B0100081B0100081B010008A0
:1000D0001B0100081B0100081B010008151F000878
:1000E0001B0100081B0100081B010008DFF80CD0F1
:1000F00000F06CF8004800475D220008E005002091
:100100000648804706480047FEE7FEE7FEE7FEE7B1
:10011000FEE7FEE7FEE7FEE7FEE7FEE7ED1A000872
:10012000ED000008202A04DB203A21FA02F0002129
:10013000704721FA02F3D040C2F1200291400843F7
:1001400019467047D2B201E000F8012B491EFBD2DC
:1001500070470022F6E710B513460A4604461946D2
:10016000FFF7F0FF204610BD2DE9F05F05460020A7
:1001700092469B4688460646814640241BE0284618
:10018000414647462246FFF7CDFF53465A46C01A1E
:10019000914110D311461846224600F029F82D1A35
:1001A00067EB01084F4622460120002100F020F8AD
:1001B00017EB00094E41201EA4F10104DFDC484684
:1001C00031462A464346BDE8F09F0000064C074DE5
:1001D00006E0E06840F0010394E807009847103417
:1001E000AC42F6D3FFF786FFDC220008FC220008B1
:1001F000202A04DB203A00FA02F1002070479140E7
:10020000C2F1200320FA03F3194390407047FEE740
:100210007047082000F050B87047000010B590F803
:1002200021100024022903D00421816301243DE030
:1002300001680A6822F00E020A6001680A6822F06A
:1002400001020A601A4A0168914201D1012121E0AC
:10025000174A1432914201D110211BE0144A28326E
:10026000914201D1891515E0114A3C32914201D1E8
:1002700089140FE00E4A5032914202D14FF480317E
:1002800008E00B4A6432914202D14FF4801101E040
:100290004FF08071064A083A5160012180F8211020
:1002A000002180F82010416B01B18847204610BD25
:1002B0000800024070470000044910B50A68024275
:1002C00002D00860FFF7F6FF10BD000014040140E3
:1002D0002DE9F84FDFF8B891002409F1040A0AF17A
:1002E000040B23460F270BF1040EC9E00125A5409E
:1002F0002A40AA427DD1674ED1F804C0ACEB060873
:10030000B44532D014DCBCF1030F3AD009DCBCF1A7
:10031000000F2AD0BCF1010F1CD0BCF1020F31D16B
:100320001DE0BCF1110F17D0BCF1120F2AD119E05A
:10033000B8F5881F19D006DCB8F5803F15D0B8F5A0
:10034000801F1FD111E0B8F5001F0ED0B8F5041FB3
:1003500018D10AE0CB6815E0CB681B1D12E0CB6812
:1003600008330FE0CB680C330CE08B682BB1012B0A
:100370004FF0080303D0456104E0042302E0056167
:1003800000E00023FF2A01D8064601E000F1040640
:100390004FEA840501D9A5F12005D6F8008007FAB7
:1003A00005FC28EA0C0803FA05F548EA0508C6F832
:1003B00000804D68ED0062D5374DAE6946F001060C
:1003C000AE61AD6924F0030605F001050095334DDB
:1003D00006EB050CDCF80850A607360F07FA06F8FE
:1003E00025EA0805DFF8B880404503D14FF0000842
:1003F00017E044E0DFF8AC80404502D14FF001083F
:100400000FE0DFF8A480404502D14FF0020808E079
:10041000DFF89880404502D14FF0030801E04FF02B
:10042000040808FA06F848EA0508CCF808804D6880
:10043000D9F80060ED034D4601D5164300E0964320
:100440002E604D68DAF80060AD03554601D51643BD
:1004500000E096432E604D68DBF80060ED025D46DB
:1004600001D5164300E096432E604D68DEF800602B
:10047000AD02754601D5164300E096432E60641C1C
:100480000D682A46E5407FF431AFBDE8F88F0000E3
:100490000004014000001110001002400000014063
:1004A00000080140000C0140001001400014014010
:1004B0000AB1016170470904FBE700000148806848
:1004C000704700000000002070B5040025D094F8AB
:1004D0003D00002520B984F83C50204600F0B8F8D3
:1004E000242084F83D002068016821F001010160AA
:1004F0002068016841F4004101602068016821F42E
:100500000041016000F030FA4D4A6168914201D823
:100510004C4900E04C49884201D2012070BD4B4952
:100520002368B0FBF1F15E6826F03F060E435E6083
:100530006368934206D94FF4967359434FF47A7324
:10054000B1FBF3F12368491C1E6A26F03F063143D4
:1005500019626168914210D84900401EB0FBF1F267
:10056000521CC2F30B02042A01D2042022E0B0FB89
:10057000F1F0401CC0F30B001CE0A268F2B301EBE9
:10058000C10303EB0116431EB3FBF6F35B1C43F4FC
:1005900080431B0549D092B301EBC10202EB01116C
:1005A000401EB0FBF1F0401CC0F30B0040F4804053
:1005B00040F400402168CA694CF6FF739A43104327
:1005C000C861D4E9071001432068026822F0C00224
:1005D00011430160D4E9030101432068826848F2B5
:1005E000FF339A4311438160D4E905010843216830
:1005F000CA6822F0FF021043C86001E00EE016E076
:100600002068016841F0010101602564202084F820
:100610003D00256384F83E50002070BD01EB41068B
:10062000431EB3FBF6F35B1CB3E70120C2E701EB0B
:100630004101401EB0FBF1F0401CC0F30B00B7E7D6
:10064000A086010080841E0000093D0040420F008A
:1006500010B586B0002100910191029103910068CC
:100660000F4988421AD10F4CA06940F00800A061E0
:10067000A069694600F008000490C0200090122094
:100680000190032003900848FFF722FEE06940F440
:100690000010E061E06900F40010049006B010BDA5
:1006A0000054004000100240000C014070B50400EE
:1006B00011D021684CF6CC400860216845F25550B5
:1006C0000860D4E9000141602168A0688860FFF7F4
:1006D000F5FE054609E0012070BD00BFFFF7EEFE04
:1006E000401B262801D9032070BD2068C06800285F
:1006F000F4D121684AF6AA200860002070BD006885
:100700004AF6AA2101600020704700000248816873
:10071000027811448160704700000020074810B53E
:10072000016841F010010160032000F075F800201D
:1007300000F006F800F024F8002010BD0020024070
:1007400070B50D4D04464FF47A712878B1FBF0F086
:100750000A490968B1FBF0F000F086FB48B9102C9B
:1007600007D200222146501E00F036F800206C60AF
:1007700070BD012070BD0000000000200C000020B2
:100780000C4808B5816941F001018161816901F07E
:1007900001010091C16941F08051C161C06900F05F
:1007A000805000900448416821F0E06141F0806190
:1007B000416008BD0010024000000140002809DB34
:1007C00000F01F02012191404009800000F1E0206B
:1007D000C0F8001170470000F0B40E4B1B680C46C7
:1007E000C3F30223C3F10705042D00D90425191D05
:1007F000072901D2002300E0DB1E012606FA05F1DD
:10080000491E214099409E40761E16403143F0BC5F
:1008100001F098BB0CED00E0064900F00702086803
:100820004FF6FF03184040EA0220034A10430860D5
:10083000704700000CED00E00000FA052DE9F047DC
:100840000F46050061D0434E306800F00700B84203
:1008500009D2306820F0070038433060306800F07B
:100860000700B84251D128683B4C810712D5400798
:1008700003D5606840F4E06060602878000703D525
:10088000606840F4605060606068A96820F0F00023
:10089000084360602878C00728D06868012810D015
:1008A0002168022810D0890700292EDA616821F01A
:1008B000030101436160FFF701FE804641F2883980
:1008C0000DE021688903EFE78901EDE7FFF7F6FD09
:1008D000A0EB0801494502D90320BDE8F087606814
:1008E000696800F00C00B0EB810FEFD1306800F0C8
:1008F0000700B8420BD9306820F007003843306059
:10090000306800F00700B84201D00120E5E7287800
:10091000400705D56068E96820F4E060084360603E
:100920002878000706D56068296920F4605040EAFD
:10093000C100606000F038F86168084AC1F3031133
:10094000515CC8400649086006480068FFF7F8FE99
:100950000020C2E70020024000100240C42200082C
:100960000C00002004000020044805490068496884
:10097000044AC1F30221515CC84070470C000020BA
:1009800000100240D4220008044805490068496864
:10099000044AC1F3C221515CC84070470C000020DA
:1009A00000100240D422000812A185B00FC98DE8C2
:1009B0000F0014A0144A006804905168134801F015
:1009C0000C03042B10D0082B0ED1C1F38343C903B1
:1009D0001DF803000AD5516804AAC1F34041515CD7
:1009E0000A4A5043B0FBF1F005B07047084948434C
:1009F000FAE7000002030405060708090A0B0C0DBC
:100A00000E0F1010010200000010024000127A00C8
:100A100000093D002DE9F84F040070D02078C04D4A
:100A2000C00749D06868C0F38100012807D0686812
:100A3000C0F38100022809D16868C00306D5286880
:100A4000800339D560680028E7D035E06068B0F5EC
:100A5000803F0BD010B1B0F5A02F11D0286820F442
:100A600080302860286820F4802002E0286840F464
:100A700080302860606890B1FFF720FD06460AE0EC
:100A8000286840F480202860F0E700BFFFF716FDDB
:100A9000801B642873D828688003F7D50CE0FFF723
:100AA0000DFD064605E000BFFFF708FD801B64282A
:100AB000F0D828688003F7D420789A4E80074FF04A
:100AC00001094FF0000839D5686810F00C0F07D005
:100AD0006868C0F38100022809D16868C00306D4A1
:100AE0002868800714D52069012808D110E0206902
:100AF000B0B1C6F80090FFF7E1FC074605E00AE157
:100B0000FFF7DCFCC01B0228C4D828688007F7D593
:100B10002868616920F0F80040EAC10028600DE013
:100B2000C6F80080FFF7CAFC074604E0FFF7C6FCE2
:100B3000C01B022823D828688007F7D42078000734
:100B40002CD57948A169D9B1C0F80090FFF7B6FC5F
:100B5000074604E0FFF7B2FCC01B02280FD8686A02
:100B60008007F7D571484FF4FA510068B0FBF1F0F7
:100B7000009000BF0098411E0091FAD20EE080E084
:100B8000C0F80080FFF79AFC074604E0FFF796FCE8
:100B9000C01B022875D8686A8007F7D42078400700
:100BA00060D5E8690027C00008D4E86940F08050AB
:100BB000E861E869012700F0805000905C48016816
:100BC000C90513D40168834641F480710160FFF7C1
:100BD00075FC824606E000BFFFF770FCA0EB0A0040
:100BE00064284ED8DBF80000C005F5D5E068012880
:100BF0000AD008B1052813D0286A20F00100286225
:100C0000286A20F0040002E0286A40F0010028620F
:100C1000E06841F2883B98B1FFF750FC82460BE058
:100C2000286A40F004002862EEE700BFFFF746FCA8
:100C3000A0EB0A0159455AD8286A8007F6D50CE07E
:100C4000FFF73CFC824605E0FFF738FCA0EB0A0109
:100C500059454CD8286A8007F6D41FB1E86920F0BE
:100C60008050E861E06988B36968C1F381010229B5
:100C700044D00228C6F8608004D0FFF71FFC044669
:100C800038E034E0FFF71AFC074604E0FFF716FCF3
:100C9000C01B02282BD828688001F7D4206AB0F541
:100CA000803F05D16868A16820F40030084368607F
:100CB000D4E908010843696821F4741108436860A5
:100CC000C6F86090FFF7FAFB044606E025E000BF97
:100CD000FFF7F4FB001B022809D828688001F7D52C
:100CE0001BE000BFFFF7EAFB001B022802D903202C
:100CF000BDE8F88F28688001F4D40EE00128F7D011
:100D00006868226A00F48031914204D1616A00F47B
:100D10007010884201D00120EAE70020E8E70000D7
:100D20000010024000004242800442420C000020B9
:100D30000070004070B5040009D0606A002540B121
:100D400025616561A56294F8510040B10CE0012075
:100D500070BD6068B0F5827FF4D0E561F2E784F899
:100D60005050204600F040F8022084F851002068DE
:100D7000016821F040010160A088218900F482709F
:100D800001F404410843A18901F400610843217C76
:100D900001F002010843217D01F001010843218B8C
:100DA00001F400710843217F01F03801084394F8F1
:100DB000201001F080010843218D01F40051084307
:100DC00021680860A069042101EA10402168486098
:100DD0002068C16921F40061C1616565012084F862
:100DE0005100002070BD000030B585B00024009493
:100DF0000194029403940068174988422AD1174845
:100E0000816941F480518161816901F480510491CB
:100E1000816941F0080181618069114D00F008008D
:100E2000049028200090022001900320039069463E
:100E30002846FFF74DFA1020CDE900046946284600
:100E40000294FFF745FA0748416841F0E06141F03C
:100E50000101416005B030BD00300140001002408A
:100E6000000C01400000014010B5401EB0F1807F31
:100E700001D3012010BD4FF0E02460610F21601705
:100E800001F060F80020A06107202061002010BD63
:100E90007047704770B590F83C20012A26D0012495
:100EA00080F83C40022280F83D2003685A689D6823
:100EB00022F070060A6832435A600D4B02689A426B
:100EC00008D0B2F1804F05D00A4B9A4202D00A4BAB
:100ED0009A4204D1496825F080031943916080F853
:100EE0003D40002180F83C10084670BD022070BDD6
:100EF000002C0140000400400008004010B5040030
:100F000003D094F83D0010B107E0012010BD00208F
:100F100084F83C00204600F01FF8022084F83D00D1
:100F2000211D206800F0F0FD012084F8460084F8BF
:100F30003E0084F83F0084F8400084F8410084F8C3
:100F4000420084F8430084F8440084F8450084F8A3
:100F50003D00002010BD000008B5154A0168154885
:100F600091420ED1816941F4006181618069002262
:100F700000F40060009011461920FFF72DFC1920A5
:100F800010E0B1F1804F11D1C16941F00101C1619F
:100F9000C069002200F00100009011461C20FFF7FC
:100FA0001BFC1C20BDE80840FFF708BC08BD000082
:100FB000002C01400010024090F83D10012901D0A2
:100FC00001207047022180F83D100168CA6842F094
:100FD0000102CA6000680B49884208D0B0F1804F16
:100FE00005D00949884202D00849884204D1816865
:100FF00001F00701062903D0016841F001010160F9
:1010000000207047002C0140000400400008004010
:1010100070B5044690F83C00012817D0012584F8EB
:101020003C50022084F83D002068826822F077025C
:1010300022F47F4282600868502830D00DDC2028DE
:101040004DD005DC98B310283BD148E0022070BD9C
:10105000302844D0402834D139E0602828D0702886
:1010600006D0B0F5805F2CD0B0F5005F29D10AE042
:10107000CB68D1E90121206800F089FD20688168F2
:1010800041F0770109E0CB68D1E90121206800F047
:101090007EFD2068816841F48041816011E0CA686A
:1010A0004968206800F028FE5021206807E016E01B
:1010B000CA684968206800F030FE6021206800F0AE
:1010C00070FD84F83D50002084F83C0070BDCA6873
:1010D0004968206800F010FE40212068EFE7226890
:1010E00001461046EBE7704770B504460068016999
:1010F0004FF00005C943890715D4C168C943890762
:1011000011D4E91E016101202077206880698007E1
:10111000204602D0FFF7E7FF04E000F0BDF82046CC
:1011200000F04CF9257720680169C943490717D4B5
:10113000C168C943490713D46FF00401016102205B
:1011400020772068806910F4407F204602D0FFF7A6
:10115000CAFF04E000F0A0F8204600F02FF9257740
:1011600020680169C943090716D4C168C943090742
:1011700012D46FF008010161042020772068C06953
:101180008007204602D0FFF7AEFF04E000F084F8AD
:10119000204600F013F9257720680169C943C90684
:1011A00017D4C168C943C90613D46FF01001016197
:1011B000082020772068C06910F4407F204602D0C4
:1011C000FFF791FF04E000F067F8204600F0F6F822
:1011D000257720680169C943C90708D1C168C94397
:1011E000C90704D1891E0161204600F037F9206843
:1011F0000169C943090609D4C168C943090605D470
:101200006FF0800101612046FFF742FE206801690E
:10121000C943490609D4C168C943490605D46FF0DA
:1012200040010161204600F01AF920680169C943B4
:1012300089060BD4C168C943890607D46FF0200121
:1012400001612046BDE87040FFF723BE70BD00007D
:1012500000B585B0002100910191029103910068D1
:10126000B0F1804F11D10A48816941F004018161D8
:101270008069694600F0040004900120009002207B
:10128000019003900348FFF723F805B000BD00006C
:101290000010024000080140704770B5044690F805
:1012A0003C000D4601280AD0012084F83C0042B1E0
:1012B000042A18D0082A2AD00C2A4DD139E002205D
:1012C00070BD206800F076FC2068816941F008015B
:1012D00081612068816921F0040181612068816950
:1012E0002A69114311E0206800F08CFC20688169B4
:1012F00041F4006181612068816921F4806181612C
:10130000206881692A6941EA0221816124E020681C
:1013100000F0A4FC2068C16941F00801C1612068A7
:10132000C16921F00401C1612068C1692A691143C2
:1013300011E0206800F0BEFC2068C16941F4006142
:10134000C1612068C16921F48061C1612068C169FF
:101350002A6941EA0221C161002084F83C0070BD85
:1013600010B5040003D094F83D0010B107E001204F
:1013700010BD002084F83C00204600F01EF802203A
:1013800084F83D00211D206800F0BEFB012084F898
:10139000460084F83E0084F83F0084F8400084F85A
:1013A000410084F8420084F8430084F8440084F843
:1013B000450084F83D00002010BD704770470000D4
:1013C00010B50446022249B104290ED0082913D0D1
:1013D00094F84100012816D0012010BD94F83E0079
:1013E0000128F9D184F83E200FE094F83F0001284D
:1013F000F2D184F83F2008E094F840000128EBD1B6
:1014000084F8402001E084F841200122206800F0A7
:10141000B1FB0F492068884203D1426C42F400427C
:1014200042642068884208D0B0F1804F05D0094955
:10143000884202D00849884204D1816801F007013E
:10144000062903D0016841F001010160002010BDB0
:10145000002C014000040040000800407047704725
:101460007047000070B5026804461068D16853697F
:1014700010F00F0F52D003F0010501F490762E43C7
:101480005FD0C20705D0CA0503D5E26B42F0010266
:10149000E263420705D5DA0703D0E26B42F00202AD
:1014A000E263820705D5DA0703D0E26B42F004025B
:1014B000E263020707D501F020022A4303D0E26B62
:1014C00042F00802E263E26B002A33D0800604D5C2
:1014D000880602D5204600F048FC20684069E16B90
:1014E000C0F38010090700D428B3204600F02FFC79
:1014F0002068416949061AD5416921F040014161DE
:10150000606BA0B12D494163606BFEF787FE002838
:1015100010D0606B416BBDE870400847830610D562
:101520008B060ED52046BDE8704000F01EBC20465C
:10153000FFF796FF70BD2046FFF792FF0020E063A3
:1015400070BD03062BD50B0629D594F83900212848
:10155000F6D1A068B0F5805F01D12069B0B1206AF2
:10156000411C2162216800784860E08C401E000424
:10157000000CE084E4D12068C16821F08001C160E2
:101580002068C16841F04001C16070BD206A0088D8
:10159000C0F308005060206A801C2062E5E7400626
:1015A000F3D54806F1D5D168204621F04001D1603D
:1015B000202184F8391000F0F8F870BD3F1D0008B4
:1015C00070B5040004D094F83900002510B106E08D
:1015D000012070BD84F83850204600F023F8242004
:1015E00084F839002068C16821F40051C1602046A8
:1015F00000F002FC2068016921F49041016120683B
:10160000416921F02A0141612068C16841F400511B
:10161000C160E563202084F8390084F83A00002096
:1016200070BD000070B586B000240094019402944F
:10163000039403682B482A4E022103220515B34266
:1016400021D1836943F480438361836903F4804338
:101650000493836943F0040383618069224E00F0A0
:10166000040004900802CDE9000103926946304667
:10167000FEF72EFECDE90054694630460294FEF78F
:1016800027FE06B070BD194EB342FAD1C36943F4C8
:101690008023C361C36903F480230493836943F007
:1016A000080383618069CDE9005100F00800CDE9AD
:1016B00003200F4D69462846FEF70AFEE814CDE9DF
:1016C0000004694628460294FEF702FE00221146F5
:1016D0002720FFF781F82720FFF770F8D1E70000F7
:1016E000003801400010024000080140004800405E
:1016F000000C0140704700002DE9F843044690F8C3
:1017000039001F4616460D4620284CD1C5B1BEB142
:1017100094F83800012846D0012084F838004FF0B2
:101720000008C4F83C80212084F83900FEF7C6FE8A
:10173000A6848146E684A068B0F5805F03D004E00B
:101740000120BDE8F883206928B12E465FF000052E
:1017500084F838800EE00026FAE78021204600F069
:10176000A7FBA0B9AEB116F8010B21684860E08C68
:10177000401EE084E08C4B464FF0000200970028AA
:10178000EBD14FF04001204600F092FB30B1032036
:10179000D7E735F8020BC0F30800E6E7202084F80D
:1017A00039000020CDE70220CBE77047FEE70000BC
:1017B00070B586B0002529480095019502950395DE
:1017C000816941F020018161816901F0200104916A
:1017D000816941F004018161816901F00401049192
:1017E000816941F00801816180691D4E00F00800A7
:1017F0000490002260213046FEF75AFE0820009037
:1018000018480124CDE9010469463046FEF760FD21
:101810001020CDE90005694602943046FEF758FDD8
:101820002020CDE900040220CDE90240694630467F
:10183000FEF74EFD40208DE83100032003906946FD
:101840003046FEF745FD002211460920FEF7C4FF91
:101850000920FEF7B3FF06B070BD00000010024083
:1018600000080140000021100D4810B50B4901602F
:101870000C49416000214FF480428160C0E90312AD
:1018800041618161C1610162FEF71EFE002803D043
:10189000BDE81040FEF7C0BC10BD00000054004081
:1018A00014000020A0860100094810B50749016016
:1018B0000021416040F6FF718160FEF7F7FE0028CD
:1018C00003D0BDE81040FEF7A7BC10BD00300040BB
:1018D00068000020104810B50E4901604FF4827175
:1018E000416000218160C1604FF400720161C0E974
:1018F00005120822C0E90721416281620A21C16202
:10190000FFF718FA002803D0BDE81040FEF784BCAA
:1019100010BD0000003001407400002010B586B0FA
:1019200000241748009401940294039404941349EA
:10193000059401604821C0E901144FF47A71C0E9AF
:10194000031444618461FFF7D9FA08B1FEF764FC1F
:101950004FF48050009069460948FFF759FB08B1E1
:10196000FEF75AFC049404A905480594FFF792FA7F
:10197000002801D0FEF750FC06B010BD002C01403D
:10198000CC00002010B58EB0002407940894099470
:101990000A940B941C2168460C94FEF7DAFB1E484F
:1019A0004FF0804101604721C0E9011440F2F3117A
:1019B000C0E903148461FFF7A1FA08B1FEF72CFC1B
:1019C0004FF48050079007A91348FFF721FB08B197
:1019D000FEF722FC1048FFF7C3FC08B1FEF71CFC21
:1019E0000B940BA90C480C94FFF754FA08B1FEF7BE
:1019F00013FC6020CDE900040294002269460648E9
:101A00000494FFF74AFC08B1FEF706FC0248FFF712
:101A10001FFC0EB010BD0000140100200C4810B5D2
:101A20000A4901604FF4E1314160002181600C22DC
:101A3000C160C0E904128161C161FFF7C1FD0028E6
:101A400003D0BDE81040FEF7E7BB10BD00380140F1
:101A50005C0100200C4810B50A4901604FF4E131E7
:101A60004160002181600C22C160C0E904128161E3
:101A7000C161FFF7A5FD002803D0BDE81040FEF7C7
:101A8000CBBB10BD004800409C010020FEE7704722
:101A900070477047FEF73ABE30B58FB028216846D0
:101AA000FEF757FB14210AA8FEF753FB092001217A
:101AB00000904FF48030002404910691CDE9010498
:101AC0000225CDE907504FF4E01009906846FEF773
:101AD000A1FF0F20CDE90A056802CDE90C400221E3
:101AE0000AA80E94FEF7AAFE0FB030BD70470000A2
:101AF0000148FFF7F9BA0000CC0000200148FFF7C9
:101B0000F3BA000014010020F0B50268164B174C20
:101B1000174D4FF08047984205D0B84203D0A042FD
:101B200001D0A84203D122F070064A68324398429D
:101B300005D0B84203D0A04201D0A84203D122F47C
:101B40004074CA6822434C6922F08002224302603A
:101B50008A68C2620A688262984201D10969016397
:101B600001214161F0BD0000002C01400004004053
:101B70000008004010B501F01F030121046A9940DC
:101B80008C430462016A9A401143016210BD10B592
:101B9000846842EA032224F47F440A432243826099
:101BA00010BD826822F070020A4342F00701816092
:101BB0007047000030B5026A22F001020262026A38
:101BC0004368846924F073050C682C4322F00205F5
:101BD0008A682A430A4DA8420BD122F00805CA6838
:101BE00023F440732A434D6922F004021D438B699C
:101BF0002B434360846149684163026230BD000049
:101C0000002C014030B5026A22F010020262026A22
:101C1000436884690D6824F4E64444EA05248D6829
:101C200022F0200242EA05120B4DA8420ED1CD68E7
:101C300022F0800242EA05124D6923F4406343EA30
:101C400085038D6922F0400243EA85034360846185
:101C500049688163026230BD002C014030B5026AE0
:101C600022F480720262036A4268C46923F400733A
:101C700024F073050C682C438D6843EA05230C4D52
:101C8000A8420ED1CD6823F4006343EA05234D69D1
:101C900022F4405242EA05128D6923F4806342EA3D
:101CA00005124260C4614968C163036230BD00002F
:101CB000002C014030B5026A22F480520262046AAC
:101CC0004268C3690D6823F4E64343EA05238D683F
:101CD00024F4005444EA0534064DA84204D14D6969
:101CE00022F4804242EA85124260C361496801647D
:101CF000046230BD002C014010B5036A046A24F070
:101D000001040462846924F0F00444EA021423F01C
:101D10000A020A438461026210BD10B5036A23F00F
:101D2000100303628369046A23F4704343EA0232B6
:101D300024F0A00343EA01118261016210BD10B5D5
:101D4000406A0021C185C184FFF78AFB10BD01688C
:101D5000CA6822F49072CA6001684A6922F00102DE
:101D60004A61202180F83A10704710B590F83A1077
:101D7000222901D0022010BD82684FF480539A427C
:101D800001D1016921B1816A9A421BD04AB10AE0AE
:101D90000268816A5268C2F308020A80816A891C5B
:101DA00008E0026972B10268526802F07F020A70AC
:101DB000816A491C8162C18D491E0904090CC185D3
:101DC00003D016E002685268F1E70168CA6822F0A1
:101DD0002002CA600168CA6822F48072CA60016881
:101DE0004A6922F001024A61202180F83A10FFF787
:101DF00081FC002010BD000070B504460068016938
:101E0000E26821F44051114301612169A06808434F
:101E1000616908432168CA6841F20C639A4302432E
:101E2000CA6020684169A26921F44071114341618F
:101E30001E492068884202D1FEF7A6FD01E0FEF7A8
:101E400093FD00EBC00101EB00126068642180008B
:101E5000B2FBF0F3B3FBF1F36FF018067343B2FB80
:101E6000F0F5B2FBF0F605EB8305322303EB051525
:101E7000B5FBF1F5B6FBF1F605F0F00505EB06153F
:101E8000B2FBF0F6B2FBF0F0B0FBF1F06FF018022D
:101E9000504306EB800003EB0010B0FBF1F021682B
:101EA00000F00F002844886070BD00000038014039
:101EB0002DE9F041984617460E460446069D1DE062
:101EC000681C1BD02DB1FEF7F9FAA0EB0800A84260
:101ED00014D92068C16821F4D071C16020684169BB
:101EE00021F001014161202084F8390084F83A0092
:101EF000002084F838000320BDE8F08120680068E5
:101F000036EA000004D00020B842D9D00020F3E720
:101F10000120F9E70148FFF7A5BA00009C01002065
:101F2000FEE700000FB4054B10B503A9044A029860
:101F300000F028F810BC5DF814FB000045220008F2
:101F4000100000200907090E002804DB00F1E02042
:101F500080F80014704700F00F0000F1E02080F8D6
:101F6000141D704702E008C8121F08C1002AFAD1E8
:101F700070477047002001E001C1121F002AFBD109
:101F8000704700002DE9FF4F8DB09B460F46044679
:101F9000002606E025280BD05A460F999047641C6E
:101FA000761C20780028F5D111B03046BDE8F08FBE
:101FB0000025A8460122984900E0054314F8013F96
:101FC000203B02FA03F00842F7D120782E2817D1DF
:101FD00014F8010F45F004052A280ED06FF02F02E7
:101FE0002078A0F1300109290AD808EB880102EB1A
:101FF000410100EB0108641CF2E757F8048B641CF4
:1020000020786C280DD004DC4C2812D06A2811D11D
:1020100004E074280DD07A280CD10AE045F40015AC
:1020200007E0617845F48015814202D1641C05F512
:102030008015641C2278692A45D008DC002AB3D0B8
:10204000582A69D0632A10D0642A08D13BE0702A4C
:1020500067D0732A13D0752A5CD0782A5CD01046DA
:102060005A460F999047761CD3E017F8040B8DF869
:10207000000000208DF80100E946012003E057F838
:10208000049B4FF0FF3069074FF0000501D40AE0D0
:102090006D1C45450DDA8542FADB19F8051000295B
:1020A000F6D106E06D1C8542FCDB19F8051000290D
:1020B000F8D12E4404E019F8010B5A460F999047C5
:1020C0006D1EF8D2A5E00A200021CDE90801C5F374
:1020D000025002280DD001CFC117031E71F1000379
:1020E0000DDA4FF0000CD0EB0C006CEB01012D234E
:1020F00008E0FF1D27F00707F7E80201EDE72B05D1
:1021000004D52B238DF8283001233BE0EB0739D091
:102110002023F7E70A2000E010200021CDE9080184
:1021200007E01020002145F00405CDE908014FF03B
:102130000808C5F3025002280FD001CF00214FF04C
:10214000000A2B071FD5702A0DD0DDE908C38CF0DB
:10215000100C5CEA030C0CD015E0FF1D27F00707FC
:10216000F7E80201EBE740228DF828204FF0010A42
:102170000BE050EA010306D030238DF828308DF8AB
:10218000292002239A46582A04D024A20DF12009BE
:102190000B9209E026A2F9E7DDE90823FDF7E4FF49
:1021A0000B9B9B5C09F8013D50EA0102F4D1ADEBB9
:1021B000090020300890680701D44FF00108089901
:1021C000884502DDA8EB010000E0002080460025E4
:1021D00006E00AA85A46405D0F9990476D1C761C90
:1021E0005545F6DB04E030205A460F999047761C9F
:1021F000B8F10001A8F10108F5DC05E019F8010BC0
:102200005A460F999047761C0899481E0890002955
:10221000F4DC641CC5E600000928010030313233CB
:102220003435363738396162636465660000000012
:1022300030313233343536373839414243444546FC
:102240000000000013B54FF47A730122694602487A
:10225000FFF752FA00981CBD5C010020FEF75EFA01
:10226000FFF71AFCFFF7A4FAFFF7FEFAFFF756FB99
:10227000FFF7D4FBFFF718FBFFF72CFBFFF782FB00
:10228000FFF7E8FB08A0FFF74DFE0B48FEF794FEB2
:102290000A48FEF791FE00210848FFF791F8084828
:1022A000FEF72DFAFBE7000073797374656D206902
:1022B0006E69740A00000000CC00002014010020A8
:1022C000680000200000000000000000010203047C
:1022D000060708090000000001020304FC220008B0
:1022E0000000002014000000641F000810230008F4
:1022F00014000020CC050000741F0008010000003D
:1023000010000000000000000024F40000000000A5
:04000005080000ED02
:00000001FF
